{
  "_format": "hh-sol-artifact-1",
  "contractName": "EncryptionKeyStorage",
  "sourceName": "contracts/Security.sol",
  "abi": [
    {
      "anonymous": false,
      "inputs": [
        {
          "indexed": true,
          "internalType": "bytes32",
          "name": "identifier",
          "type": "bytes32"
        },
        {
          "indexed": false,
          "internalType": "string",
          "name": "description",
          "type": "string"
        }
      ],
      "name": "KeyStored",
      "type": "event"
    },
    {
      "inputs": [
        {
          "internalType": "bytes32",
          "name": "identifier",
          "type": "bytes32"
        }
      ],
      "name": "getEncryptionKey",
      "outputs": [
        {
          "internalType": "bytes32",
          "name": "key",
          "type": "bytes32"
        },
        {
          "internalType": "bytes16",
          "name": "iv",
          "type": "bytes16"
        },
        {
          "internalType": "string",
          "name": "description",
          "type": "string"
        }
      ],
      "stateMutability": "view",
      "type": "function"
    },
    {
      "inputs": [
        {
          "internalType": "bytes32",
          "name": "identifier",
          "type": "bytes32"
        },
        {
          "internalType": "bytes32",
          "name": "key",
          "type": "bytes32"
        },
        {
          "internalType": "bytes16",
          "name": "iv",
          "type": "bytes16"
        },
        {
          "internalType": "string",
          "name": "description",
          "type": "string"
        }
      ],
      "name": "storeEncryptionKey",
      "outputs": [],
      "stateMutability": "nonpayable",
      "type": "function"
    }
  ],
  "bytecode": "0x608060405234801561001057600080fd5b50610c18806100206000396000f3fe608060405234801561001057600080fd5b50600436106100365760003560e01c80639a467cc51461003b578063a2036faf14610057575b600080fd5b6100556004803603810190610050919061059d565b610089565b005b610071600480360381019061006c9190610620565b610250565b604051610080939291906106ea565b60405180910390f35b6000801b84036100ce576040517f08c379a00000000000000000000000000000000000000000000000000000000081526004016100c590610774565b60405180910390fd5b6000801b8303610113576040517f08c379a000000000000000000000000000000000000000000000000000000000815260040161010a906107e0565b60405180910390fd5b600060801b6fffffffffffffffffffffffffffffffff1916826fffffffffffffffffffffffffffffffff19160361017f576040517f08c379a00000000000000000000000000000000000000000000000000000000081526004016101769061084c565b60405180910390fd5b6040518060600160405280848152602001836fffffffffffffffffffffffffffffffff19168152602001828152506000808681526020019081526020016000206000820151816000015560208201518160010160006101000a8154816fffffffffffffffffffffffffffffffff021916908360801c0217905550604082015181600201908161020e9190610a82565b50905050837fa714a1f8bb37c92548488e5d32c98c06059c59c58412659f3438f9eced865fdd826040516102429190610b54565b60405180910390a250505050565b60008060606000806000868152602001908152602001600020604051806060016040529081600082015481526020016001820160009054906101000a900460801b6fffffffffffffffffffffffffffffffff19166fffffffffffffffffffffffffffffffff191681526020016002820180546102cb9061089b565b80601f01602080910402602001604051908101604052809291908181526020018280546102f79061089b565b80156103445780601f1061031957610100808354040283529160200191610344565b820191906000526020600020905b81548152906001019060200180831161032757829003601f168201915b50505050508152505090506000801b816000015103610398576040517f08c379a000000000000000000000000000000000000000000000000000000000815260040161038f90610bc2565b60405180910390fd5b806000015181602001518260400151935093509350509193909250565b6000604051905090565b600080fd5b600080fd5b6000819050919050565b6103dc816103c9565b81146103e757600080fd5b50565b6000813590506103f9816103d3565b92915050565b60007fffffffffffffffffffffffffffffffff0000000000000000000000000000000082169050919050565b610434816103ff565b811461043f57600080fd5b50565b6000813590506104518161042b565b92915050565b600080fd5b600080fd5b6000601f19601f8301169050919050565b7f4e487b7100000000000000000000000000000000000000000000000000000000600052604160045260246000fd5b6104aa82610461565b810181811067ffffffffffffffff821117156104c9576104c8610472565b5b80604052505050565b60006104dc6103b5565b90506104e882826104a1565b919050565b600067ffffffffffffffff82111561050857610507610472565b5b61051182610461565b9050602081019050919050565b82818337600083830152505050565b600061054061053b846104ed565b6104d2565b90508281526020810184848401111561055c5761055b61045c565b5b61056784828561051e565b509392505050565b600082601f83011261058457610583610457565b5b813561059484826020860161052d565b91505092915050565b600080600080608085870312156105b7576105b66103bf565b5b60006105c5878288016103ea565b94505060206105d6878288016103ea565b93505060406105e787828801610442565b925050606085013567ffffffffffffffff811115610608576106076103c4565b5b6106148782880161056f565b91505092959194509250565b600060208284031215610636576106356103bf565b5b6000610644848285016103ea565b91505092915050565b610656816103c9565b82525050565b610665816103ff565b82525050565b600081519050919050565b600082825260208201905092915050565b60005b838110156106a557808201518184015260208101905061068a565b60008484015250505050565b60006106bc8261066b565b6106c68185610676565b93506106d6818560208601610687565b6106df81610461565b840191505092915050565b60006060820190506106ff600083018661064d565b61070c602083018561065c565b818103604083015261071e81846106b1565b9050949350505050565b7f4964656e7469666965722063616e6e6f7420626520656d707479000000000000600082015250565b600061075e601a83610676565b915061076982610728565b602082019050919050565b6000602082019050818103600083015261078d81610751565b9050919050565b7f4b65792063616e6e6f7420626520656d70747900000000000000000000000000600082015250565b60006107ca601383610676565b91506107d582610794565b602082019050919050565b600060208201905081810360008301526107f9816107bd565b9050919050565b7f49562063616e6e6f7420626520656d7074790000000000000000000000000000600082015250565b6000610836601283610676565b915061084182610800565b602082019050919050565b6000602082019050818103600083015261086581610829565b9050919050565b7f4e487b7100000000000000000000000000000000000000000000000000000000600052602260045260246000fd5b600060028204905060018216806108b357607f821691505b6020821081036108c6576108c561086c565b5b50919050565b60008190508160005260206000209050919050565b60006020601f8301049050919050565b600082821b905092915050565b60006008830261092e7fffffffffffffffffffffffffffffffffffffffffffffffffffffffffffffffff826108f1565b61093886836108f1565b95508019841693508086168417925050509392505050565b6000819050919050565b6000819050919050565b600061097f61097a61097584610950565b61095a565b610950565b9050919050565b6000819050919050565b61099983610964565b6109ad6109a582610986565b8484546108fe565b825550505050565b600090565b6109c26109b5565b6109cd818484610990565b505050565b5b818110156109f1576109e66000826109ba565b6001810190506109d3565b5050565b601f821115610a3657610a07816108cc565b610a10846108e1565b81016020851015610a1f578190505b610a33610a2b856108e1565b8301826109d2565b50505b505050565b600082821c905092915050565b6000610a5960001984600802610a3b565b1980831691505092915050565b6000610a728383610a48565b9150826002028217905092915050565b610a8b8261066b565b67ffffffffffffffff811115610aa457610aa3610472565b5b610aae825461089b565b610ab98282856109f5565b600060209050601f831160018114610aec5760008415610ada578287015190505b610ae48582610a66565b865550610b4c565b601f198416610afa866108cc565b60005b82811015610b2257848901518255600182019150602085019450602081019050610afd565b86831015610b3f5784890151610b3b601f891682610a48565b8355505b6001600288020188555050505b505050505050565b60006020820190508181036000830152610b6e81846106b1565b905092915050565b7f4b6579206e6f7420666f756e6400000000000000000000000000000000000000600082015250565b6000610bac600d83610676565b9150610bb782610b76565b602082019050919050565b60006020820190508181036000830152610bdb81610b9f565b905091905056fea26469706673582212205f7e0e531c775079a691d4328ac622552bb594c2be1e6c7537081940766ef2b864736f6c63430008110033",
  "linkReferences": {},
  "deployedLinkReferences": {}
}